{
  "contractName": "eSports",
  "abi": [
    {
      "constant": true,
      "inputs": [
        {
          "name": "",
          "type": "uint256"
        }
      ],
      "name": "playersID",
      "outputs": [
        {
          "name": "",
          "type": "address"
        }
      ],
      "payable": false,
      "stateMutability": "view",
      "type": "function"
    },
    {
      "constant": true,
      "inputs": [
        {
          "name": "",
          "type": "address"
        }
      ],
      "name": "playerInfo",
      "outputs": [
        {
          "name": "amt",
          "type": "uint256"
        },
        {
          "name": "teamSelected",
          "type": "uint16"
        }
      ],
      "payable": false,
      "stateMutability": "view",
      "type": "function"
    },
    {
      "constant": true,
      "inputs": [],
      "name": "minimum",
      "outputs": [
        {
          "name": "",
          "type": "uint256"
        }
      ],
      "payable": false,
      "stateMutability": "view",
      "type": "function"
    },
    {
      "constant": true,
      "inputs": [],
      "name": "totalBetsTwo",
      "outputs": [
        {
          "name": "",
          "type": "uint256"
        }
      ],
      "payable": false,
      "stateMutability": "view",
      "type": "function"
    },
    {
      "constant": true,
      "inputs": [],
      "name": "teamName2",
      "outputs": [
        {
          "name": "",
          "type": "string"
        }
      ],
      "payable": false,
      "stateMutability": "view",
      "type": "function"
    },
    {
      "constant": true,
      "inputs": [],
      "name": "teamName1",
      "outputs": [
        {
          "name": "",
          "type": "string"
        }
      ],
      "payable": false,
      "stateMutability": "view",
      "type": "function"
    },
    {
      "constant": true,
      "inputs": [],
      "name": "totalBetsOne",
      "outputs": [
        {
          "name": "",
          "type": "uint256"
        }
      ],
      "payable": false,
      "stateMutability": "view",
      "type": "function"
    },
    {
      "constant": true,
      "inputs": [],
      "name": "owner",
      "outputs": [
        {
          "name": "",
          "type": "address"
        }
      ],
      "payable": false,
      "stateMutability": "view",
      "type": "function"
    },
    {
      "constant": true,
      "inputs": [],
      "name": "gameWinner",
      "outputs": [
        {
          "name": "",
          "type": "string"
        }
      ],
      "payable": false,
      "stateMutability": "view",
      "type": "function"
    },
    {
      "inputs": [],
      "payable": false,
      "stateMutability": "nonpayable",
      "type": "constructor"
    },
    {
      "payable": true,
      "stateMutability": "payable",
      "type": "fallback"
    },
    {
      "anonymous": false,
      "inputs": [],
      "name": "CallbackGetGameWinner",
      "type": "event"
    },
    {
      "anonymous": false,
      "inputs": [],
      "name": "CallbackGetNames",
      "type": "event"
    },
    {
      "constant": false,
      "inputs": [],
      "name": "updateGameWinner",
      "outputs": [],
      "payable": false,
      "stateMutability": "nonpayable",
      "type": "function"
    },
    {
      "constant": false,
      "inputs": [],
      "name": "updateNames",
      "outputs": [],
      "payable": false,
      "stateMutability": "nonpayable",
      "type": "function"
    },
    {
      "constant": false,
      "inputs": [
        {
          "name": "teamname",
          "type": "string"
        }
      ],
      "name": "setWinningTeam",
      "outputs": [],
      "payable": false,
      "stateMutability": "nonpayable",
      "type": "function"
    },
    {
      "constant": false,
      "inputs": [
        {
          "name": "teamname",
          "type": "string"
        },
        {
          "name": "teamname2",
          "type": "string"
        }
      ],
      "name": "setNames",
      "outputs": [],
      "payable": false,
      "stateMutability": "nonpayable",
      "type": "function"
    },
    {
      "constant": true,
      "inputs": [],
      "name": "getGameWinner",
      "outputs": [
        {
          "name": "",
          "type": "string"
        }
      ],
      "payable": false,
      "stateMutability": "view",
      "type": "function"
    },
    {
      "constant": true,
      "inputs": [],
      "name": "getName1",
      "outputs": [
        {
          "name": "",
          "type": "string"
        }
      ],
      "payable": false,
      "stateMutability": "view",
      "type": "function"
    },
    {
      "constant": true,
      "inputs": [],
      "name": "getName2",
      "outputs": [
        {
          "name": "",
          "type": "string"
        }
      ],
      "payable": false,
      "stateMutability": "view",
      "type": "function"
    },
    {
      "constant": true,
      "inputs": [
        {
          "name": "player",
          "type": "address"
        }
      ],
      "name": "checkPlayer",
      "outputs": [
        {
          "name": "",
          "type": "bool"
        }
      ],
      "payable": false,
      "stateMutability": "view",
      "type": "function"
    },
    {
      "constant": false,
      "inputs": [
        {
          "name": "_teamSelected",
          "type": "uint8"
        }
      ],
      "name": "bet",
      "outputs": [],
      "payable": true,
      "stateMutability": "payable",
      "type": "function"
    },
    {
      "constant": true,
      "inputs": [],
      "name": "AmountOne",
      "outputs": [
        {
          "name": "",
          "type": "uint256"
        }
      ],
      "payable": false,
      "stateMutability": "view",
      "type": "function"
    },
    {
      "constant": true,
      "inputs": [],
      "name": "AmountTwo",
      "outputs": [
        {
          "name": "",
          "type": "uint256"
        }
      ],
      "payable": false,
      "stateMutability": "view",
      "type": "function"
    },
    {
      "constant": false,
      "inputs": [],
      "name": "kill",
      "outputs": [],
      "payable": false,
      "stateMutability": "nonpayable",
      "type": "function"
    },
    {
      "constant": false,
      "inputs": [
        {
          "name": "teamwinner",
          "type": "uint16"
        }
      ],
      "name": "distributePrizes",
      "outputs": [],
      "payable": false,
      "stateMutability": "nonpayable",
      "type": "function"
    }
  ],
  "bytecode": "0x608060405234801561001057600080fd5b5033600760006101000a81548173ffffffffffffffffffffffffffffffffffffffff021916908373ffffffffffffffffffffffffffffffffffffffff160217905550662386f26fc100006003819055506115408061006f6000396000f300608060405260043610610128576000357c0100000000000000000000000000000000000000000000000000000000900463ffffffff1680630bf7d5271461012a57806316413b0c146101975780631fbd5ec21461020057806341c0e1b5146102905780634471408a146102a75780634996d51d146103025780634b1146911461032d5780634fceba4d1461039357806352d6804d146104425780635bf6b19f1461046d5780635eb6f3061461049857806365733592146104af57806372397874146104da57806378ab1fa6146104f15780637904f6881461058157806387404da5146105b25780638919a20f146106425780638afadeb5146106d25780638da5cb5b146106fd5780639797e00b14610754578063c94f598b146107e4578063d0821b0e14610874575b005b34801561013657600080fd5b5061015560048036038101908080359060200190929190505050610897565b604051808273ffffffffffffffffffffffffffffffffffffffff1673ffffffffffffffffffffffffffffffffffffffff16815260200191505060405180910390f35b3480156101a357600080fd5b506101fe600480360381019080803590602001908201803590602001908080601f01602080910402602001604051908101604052809392919081815260200183838082843782019150505050505091929192905050506108d5565b005b34801561020c57600080fd5b5061021561094b565b6040518080602001828103825283818151815260200191508051906020019080838360005b8381101561025557808201518184015260208101905061023a565b50505050905090810190601f1680156102825780820380516001836020036101000a031916815260200191505b509250505060405180910390f35b34801561029c57600080fd5b506102a56109ed565b005b3480156102b357600080fd5b506102e8600480360381019080803573ffffffffffffffffffffffffffffffffffffffff169060200190929190505050610a80565b604051808215151515815260200191505060405180910390f35b34801561030e57600080fd5b50610317610b23565b6040518082815260200191505060405180910390f35b34801561033957600080fd5b5061036e600480360381019080803573ffffffffffffffffffffffffffffffffffffffff169060200190929190505050610b2d565b604051808381526020018261ffff1661ffff1681526020019250505060405180910390f35b34801561039f57600080fd5b50610440600480360381019080803590602001908201803590602001908080601f0160208091040260200160405190810160405280939291908181526020018383808284378201915050505050509192919290803590602001908201803590602001908080601f0160208091040260200160405190810160405280939291908181526020018383808284378201915050505050509192919290505050610b5f565b005b34801561044e57600080fd5b50610457610bed565b6040518082815260200191505060405180910390f35b34801561047957600080fd5b50610482610bf3565b6040518082815260200191505060405180910390f35b3480156104a457600080fd5b506104ad610bf9565b005b3480156104bb57600080fd5b506104c4610c27565b6040518082815260200191505060405180910390f35b3480156104e657600080fd5b506104ef610c31565b005b3480156104fd57600080fd5b50610506610c5f565b6040518080602001828103825283818151815260200191508051906020019080838360005b8381101561054657808201518184015260208101905061052b565b50505050905090810190601f1680156105735780820380516001836020036101000a031916815260200191505b509250505060405180910390f35b34801561058d57600080fd5b506105b0600480360381019080803561ffff169060200190929190505050610cfd565b005b3480156105be57600080fd5b506105c761100a565b6040518080602001828103825283818151815260200191508051906020019080838360005b838110156106075780820151818401526020810190506105ec565b50505050905090810190601f1680156106345780820380516001836020036101000a031916815260200191505b509250505060405180910390f35b34801561064e57600080fd5b506106576110a8565b6040518080602001828103825283818151815260200191508051906020019080838360005b8381101561069757808201518184015260208101905061067c565b50505050905090810190601f1680156106c45780820380516001836020036101000a031916815260200191505b509250505060405180910390f35b3480156106de57600080fd5b506106e761114a565b6040518082815260200191505060405180910390f35b34801561070957600080fd5b50610712611150565b604051808273ffffffffffffffffffffffffffffffffffffffff1673ffffffffffffffffffffffffffffffffffffffff16815260200191505060405180910390f35b34801561076057600080fd5b50610769611176565b6040518080602001828103825283818151815260200191508051906020019080838360005b838110156107a957808201518184015260208101905061078e565b50505050905090810190601f1680156107d65780820380516001836020036101000a031916815260200191505b509250505060405180910390f35b3480156107f057600080fd5b506107f9611218565b6040518080602001828103825283818151815260200191508051906020019080838360005b8381101561083957808201518184015260208101905061081e565b50505050905090810190601f1680156108665780820380516001836020036101000a031916815260200191505b509250505060405180910390f35b610895600480360381019080803560ff1690602001909291905050506112b6565b005b6006818154811015156108a657fe5b906000526020600020016000915054906101000a900473ffffffffffffffffffffffffffffffffffffffff1681565b600760009054906101000a900473ffffffffffffffffffffffffffffffffffffffff1673ffffffffffffffffffffffffffffffffffffffff163373ffffffffffffffffffffffffffffffffffffffff1614151561093157600080fd5b806002908051906020019061094792919061141e565b5050565b606060008054600181600116156101000203166002900480601f0160208091040260200160405190810160405280929190818152602001828054600181600116156101000203166002900480156109e35780601f106109b8576101008083540402835291602001916109e3565b820191906000526020600020905b8154815290600101906020018083116109c657829003601f168201915b5050505050905090565b600760009054906101000a900473ffffffffffffffffffffffffffffffffffffffff1673ffffffffffffffffffffffffffffffffffffffff163373ffffffffffffffffffffffffffffffffffffffff161415610a7e57600760009054906101000a900473ffffffffffffffffffffffffffffffffffffffff1673ffffffffffffffffffffffffffffffffffffffff16ff5b565b600080600090505b600680549050811015610b18578273ffffffffffffffffffffffffffffffffffffffff16600682815481101515610abb57fe5b9060005260206000200160009054906101000a900473ffffffffffffffffffffffffffffffffffffffff1673ffffffffffffffffffffffffffffffffffffffff161415610b0b5760019150610b1d565b8080600101915050610a88565b600091505b50919050565b6000600454905090565b60086020528060005260406000206000915090508060000154908060010160009054906101000a900461ffff16905082565b600760009054906101000a900473ffffffffffffffffffffffffffffffffffffffff1673ffffffffffffffffffffffffffffffffffffffff163373ffffffffffffffffffffffffffffffffffffffff16141515610bbb57600080fd5b8160009080519060200190610bd192919061141e565b508060019080519060200190610be892919061141e565b505050565b60035481565b60055481565b7fd45331257299ad618cf34f1441671f7106e59dd310e2c761784d3d44d77c752c60405160405180910390a1565b6000600554905090565b7fdc9307cb3bd6c8e465703267d3edd62eeb50aa949c087d62d7bf68b0acdcc46f60405160405180910390a1565b60018054600181600116156101000203166002900480601f016020809104026020016040519081016040528092919081815260200182805460018160011615610100020316600290048015610cf55780601f10610cca57610100808354040283529160200191610cf5565b820191906000526020600020905b815481529060010190602001808311610cd857829003601f168201915b505050505081565b610d0561149e565b600080600080600080600080600097506000965060009550600093505b600680549050841015610e2857600684815481101515610d3e57fe5b9060005260206000200160009054906101000a900473ffffffffffffffffffffffffffffffffffffffff1694508961ffff16600860008773ffffffffffffffffffffffffffffffffffffffff1673ffffffffffffffffffffffffffffffffffffffff16815260200190815260200160002060010160009054906101000a900461ffff1661ffff161415610e1b578489896103e881101515610ddb57fe5b602002019073ffffffffffffffffffffffffffffffffffffffff16908173ffffffffffffffffffffffffffffffffffffffff168152505087806001019850505b8380600101945050610d22565b60018a61ffff161415610e445760045496506005549550610e4f565b600554965060045495505b600092505b87831015610f7757600073ffffffffffffffffffffffffffffffffffffffff1689846103e881101515610e8357fe5b602002015173ffffffffffffffffffffffffffffffffffffffff16141515610ebc5788836103e881101515610eb457fe5b602002015191505b600860008373ffffffffffffffffffffffffffffffffffffffff1673ffffffffffffffffffffffffffffffffffffffff16815260200190815260200160002060000154905088836103e881101515610f1057fe5b602002015173ffffffffffffffffffffffffffffffffffffffff166108fc878984811515610f3a57fe5b040283019081150290604051600060405180830381858888f19350505050158015610f69573d6000803e3d6000fd5b508280600101935050610e54565b600860008673ffffffffffffffffffffffffffffffffffffffff1673ffffffffffffffffffffffffffffffffffffffff1681526020019081526020016000206000808201600090556001820160006101000a81549061ffff021916905550506000600681610fe591906114c3565b5060009550600096506000600481905550600060058190555050505050505050505050565b60008054600181600116156101000203166002900480601f0160208091040260200160405190810160405280929190818152602001828054600181600116156101000203166002900480156110a05780601f10611075576101008083540402835291602001916110a0565b820191906000526020600020905b81548152906001019060200180831161108357829003601f168201915b505050505081565b606060018054600181600116156101000203166002900480601f0160208091040260200160405190810160405280929190818152602001828054600181600116156101000203166002900480156111405780601f1061111557610100808354040283529160200191611140565b820191906000526020600020905b81548152906001019060200180831161112357829003601f168201915b5050505050905090565b60045481565b600760009054906101000a900473ffffffffffffffffffffffffffffffffffffffff1681565b606060028054600181600116156101000203166002900480601f01602080910402602001604051908101604052809291908181526020018280546001816001161561010002031660029004801561120e5780601f106111e35761010080835404028352916020019161120e565b820191906000526020600020905b8154815290600101906020018083116111f157829003601f168201915b5050505050905090565b60028054600181600116156101000203166002900480601f0160208091040260200160405190810160405280929190818152602001828054600181600116156101000203166002900480156112ae5780601f10611283576101008083540402835291602001916112ae565b820191906000526020600020905b81548152906001019060200180831161129157829003601f168201915b505050505081565b6112bf33610a80565b1515156112cb57600080fd5b60035434101515156112dc57600080fd5b34600860003373ffffffffffffffffffffffffffffffffffffffff1673ffffffffffffffffffffffffffffffffffffffff168152602001908152602001600020600001819055508060ff16600860003373ffffffffffffffffffffffffffffffffffffffff1673ffffffffffffffffffffffffffffffffffffffff16815260200190815260200160002060010160006101000a81548161ffff021916908361ffff16021790555060063390806001815401808255809150509060018203906000526020600020016000909192909190916101000a81548173ffffffffffffffffffffffffffffffffffffffff021916908373ffffffffffffffffffffffffffffffffffffffff1602179055505060018160ff16141561140a573460046000828254019250508190555061141b565b346005600082825401925050819055505b50565b828054600181600116156101000203166002900490600052602060002090601f016020900481019282601f1061145f57805160ff191683800117855561148d565b8280016001018555821561148d579182015b8281111561148c578251825591602001919060010190611471565b5b50905061149a91906114ef565b5090565b617d00604051908101604052806103e890602082028038833980820191505090505090565b8154818355818111156114ea578183600052602060002091820191016114e991906114ef565b5b505050565b61151191905b8082111561150d5760008160009055506001016114f5565b5090565b905600a165627a7a72305820fcf935898934f0598982bf18f51f5db35cc4a83983e9c1843850a7bedd0fa4dc0029",
  "source": "pragma solidity ^0.4.2;\r\n\r\ncontract eSports  {\r\n string public teamName1;\r\n string public teamName2;\r\n   string public gameWinner;\r\n   uint256 public minimum;\r\n   uint256 public totalBetsOne;\r\n   uint256 public totalBetsTwo;\r\n   address[] public playersID;\r\n   address public owner;\r\n   event CallbackGetGameWinner();\r\n   event CallbackGetNames();\r\n   struct Player {\r\n      uint256 amt;\r\n      uint16 teamSelected;\r\n    }\r\n   mapping(address => Player) public playerInfo;\r\n    function() public payable {}\r\n  function eSports() public {\r\n      owner = msg.sender;\r\n      minimum = 0.01 ether;\r\n\t  \r\n    }\r\nfunction updateGameWinner() public {\r\n     emit CallbackGetGameWinner();\r\n  }\r\n  function updateNames() public {\r\n      emit CallbackGetNames();\r\n  }\r\nfunction setWinningTeam(string teamname) public {\r\n    require(msg.sender == owner);\r\n    gameWinner = teamname;\r\n  }\r\n  function setNames(string teamname, string teamname2) public{\r\n      require(msg.sender==owner);\r\n      teamName1=teamname;\r\n      teamName2=teamname2;\r\n  }\r\n\r\nfunction getGameWinner() public view returns (string) {\r\n    return gameWinner;\r\n  }\r\n  function getName1() public view returns (string){\r\n      return teamName1;\r\n  }\r\n  function getName2() public view returns (string){\r\n      return teamName2;\r\n      \r\n  }\r\n\r\nfunction checkPlayer(address player) public view returns(bool){\r\n      for(uint256 i = 0; i < playersID.length; i++){\r\n         if(playersID[i] == player) return true;\r\n      }\r\n      return false;\r\n    }\r\nfunction bet(uint8 _teamSelected) public payable {\r\n      require(!checkPlayer(msg.sender));\r\n      require(msg.value >= minimum);\r\n      playerInfo[msg.sender].amt = msg.value;\r\n      playerInfo[msg.sender].teamSelected = _teamSelected;\r\n      playersID.push(msg.sender);\r\n      if (_teamSelected == 1){\r\n          totalBetsOne += msg.value;\r\n      }\r\n      else{\r\n          totalBetsTwo += msg.value;\r\n      }\r\n    }\r\n    function AmountOne() public view returns(uint256){\r\n           return totalBetsOne;\r\n        }\r\n    function AmountTwo() public view returns(uint256){\r\n           return totalBetsTwo;\r\n        }\r\n    function kill() public {\r\n      if(msg.sender == owner) selfdestruct(owner);\r\n    }\r\n    \r\n    function distributePrizes(uint16 teamwinner) public {\r\n      address[1000] memory winners;\r\n      uint256 count = 0;\r\n      uint256 totalWin = 0;\r\n      uint256 totalLost = 0;\r\n      address playerAddress;\r\n      for(uint256 i = 0; i < playersID.length; i++){\r\n         playerAddress = playersID[i];\r\n         if(playerInfo[playerAddress].teamSelected==teamwinner){\r\n            winners[count] = playerAddress;\r\n            count++;\r\n         }\r\n      }\r\n      if ( teamwinner==1 ){\r\n         totalWin = totalBetsOne;\r\n         totalLost = totalBetsTwo;\r\n      }\r\n      else{\r\n          totalWin = totalBetsTwo;\r\n          totalLost = totalBetsOne;\r\n      }\r\n      for(uint256 j = 0; j < count; j++){\r\n         if(winners[j] != address(0))\r\n            address winner = winners[j];\r\n         uint256 bett = playerInfo[winner].amt;\r\n         winners[j].transfer(bett+(bett/totalWin)*totalLost);\r\n      }\r\n      delete playerInfo[playerAddress];\r\n      playersID.length = 0;\r\n      totalLost = 0;\r\n      totalWin = 0;\r\n      totalBetsOne = 0;\r\n      totalBetsTwo = 0;\r\n    }\r\n\r\n}",
  "sourcePath": "C:\\Users\\Andy\\eSports\\contracts\\Esports.sol",
  "compiler": {
    "name": "solc",
    "version": "0.4.24+commit.e67f0147.Emscripten.clang"
  },
  "schemaVersion": "2.0.1",
  "updatedAt": "2018-11-14T04:44:30.036Z"
}